:1000000018EF00F0EA6A050EE96EEF50D8B417EF6A
:1000100000F00F0E016E006A002EFED7012EFBD7F6
:100020008F0E006E002EFED70000EF2EF2D71200CA
:10003000F86AD09EC150C00B0F09C16E070EB46E96
:10004000010E936E000E956E946E95908C90959225
:100050008C9294908B90938081A00DD0140E056E9D
:10006000D1DF938081A006D095908C8095928C9260
:1000700094908B800CD0140E056EC4DF938081B0F9
:1000800006D095908C9095928C8294908B90E3D72B
:0200900003006B
:020000040030CA
:0E00000024CE3E1E0087A1000FC00FE00F406F
:00000001FF
;PIC18F4550
;CRC=3CE2  CREATED="31-May-24 16:34"
